{
  "_format": "hh-sol-artifact-1",
  "contractName": "Dwitter",
  "sourceName": "contracts/Dwitter.sol",
  "abi": [
    {
      "inputs": [],
      "name": "getTweets",
      "outputs": [
        {
          "components": [
            {
              "internalType": "address",
              "name": "author",
              "type": "address"
            },
            {
              "internalType": "string",
              "name": "content",
              "type": "string"
            },
            {
              "internalType": "uint256",
              "name": "timestamp",
              "type": "uint256"
            },
            {
              "internalType": "uint256",
              "name": "likes",
              "type": "uint256"
            }
          ],
          "internalType": "struct Dwitter.Tweet[]",
          "name": "",
          "type": "tuple[]"
        }
      ],
      "stateMutability": "view",
      "type": "function"
    },
    {
      "inputs": [
        {
          "internalType": "address",
          "name": "_wallet",
          "type": "address"
        }
      ],
      "name": "getUser",
      "outputs": [
        {
          "components": [
            {
              "internalType": "address",
              "name": "wallet",
              "type": "address"
            },
            {
              "internalType": "string",
              "name": "username",
              "type": "string"
            },
            {
              "internalType": "string",
              "name": "name",
              "type": "string"
            },
            {
              "internalType": "string",
              "name": "bio",
              "type": "string"
            },
            {
              "internalType": "string",
              "name": "avatar",
              "type": "string"
            }
          ],
          "internalType": "struct Dwitter.User",
          "name": "",
          "type": "tuple"
        }
      ],
      "stateMutability": "view",
      "type": "function"
    },
    {
      "inputs": [
        {
          "internalType": "string",
          "name": "_content",
          "type": "string"
        }
      ],
      "name": "postTweet",
      "outputs": [],
      "stateMutability": "nonpayable",
      "type": "function"
    },
    {
      "inputs": [
        {
          "internalType": "string",
          "name": "_username",
          "type": "string"
        },
        {
          "internalType": "string",
          "name": "_name",
          "type": "string"
        },
        {
          "internalType": "string",
          "name": "_bio",
          "type": "string"
        },
        {
          "internalType": "string",
          "name": "_avatar",
          "type": "string"
        }
      ],
      "name": "signup",
      "outputs": [],
      "stateMutability": "nonpayable",
      "type": "function"
    },
    {
      "inputs": [
        {
          "internalType": "uint256",
          "name": "",
          "type": "uint256"
        }
      ],
      "name": "tweets",
      "outputs": [
        {
          "internalType": "address",
          "name": "author",
          "type": "address"
        },
        {
          "internalType": "string",
          "name": "content",
          "type": "string"
        },
        {
          "internalType": "uint256",
          "name": "timestamp",
          "type": "uint256"
        },
        {
          "internalType": "uint256",
          "name": "likes",
          "type": "uint256"
        }
      ],
      "stateMutability": "view",
      "type": "function"
    },
    {
      "inputs": [
        {
          "internalType": "address",
          "name": "",
          "type": "address"
        }
      ],
      "name": "usernames",
      "outputs": [
        {
          "internalType": "string",
          "name": "",
          "type": "string"
        }
      ],
      "stateMutability": "view",
      "type": "function"
    },
    {
      "inputs": [
        {
          "internalType": "string",
          "name": "",
          "type": "string"
        }
      ],
      "name": "users",
      "outputs": [
        {
          "internalType": "address",
          "name": "wallet",
          "type": "address"
        },
        {
          "internalType": "string",
          "name": "username",
          "type": "string"
        },
        {
          "internalType": "string",
          "name": "name",
          "type": "string"
        },
        {
          "internalType": "string",
          "name": "bio",
          "type": "string"
        },
        {
          "internalType": "string",
          "name": "avatar",
          "type": "string"
        }
      ],
      "stateMutability": "view",
      "type": "function"
    }
  ],
  "bytecode": "0x608060405234801561001057600080fd5b50611cb8806100206000396000f3fe608060405234801561001057600080fd5b506004361061007d5760003560e01c8063e8d857b01161005b578063e8d857b014610102578063ee91877c14610135578063fc86741f14610165578063fcf58fa5146101835761007d565b80630cbc3dc414610082578063689e1c031461009e5780636f77926b146100d2575b600080fd5b61009c60048036038101906100979190611045565b61019f565b005b6100b860048036038101906100b39190611045565b610395565b6040516100c995949392919061114e565b60405180910390f35b6100ec60048036038101906100e791906111e9565b610621565b6040516100f991906112fa565b60405180910390f35b61011c60048036038101906101179190611352565b610935565b60405161012c949392919061138e565b60405180910390f35b61014f600480360381019061014a91906111e9565b610a1d565b60405161015c91906113da565b60405180910390f35b61016d610abd565b60405161017a9190611530565b60405180910390f35b61019d60048036038101906101989190611552565b610c18565b005b6000600160003373ffffffffffffffffffffffffffffffffffffffff1673ffffffffffffffffffffffffffffffffffffffff16815260200190815260200160002080546101eb90611658565b90501161022d576040517f08c379a0000000000000000000000000000000000000000000000000000000008152600401610224906116fb565b60405180910390fd5b6000815111610271576040517f08c379a00000000000000000000000000000000000000000000000000000000081526004016102689061178d565b60405180910390fd5b608c815111156102b6576040517f08c379a00000000000000000000000000000000000000000000000000000000081526004016102ad906117f9565b60405180910390fd5b600060405180608001604052803373ffffffffffffffffffffffffffffffffffffffff16815260200183815260200142815260200160008152509050600081908060018154018082558091505060019003906000526020600020906004020160009091909190915060008201518160000160006101000a81548173ffffffffffffffffffffffffffffffffffffffff021916908373ffffffffffffffffffffffffffffffffffffffff160217905550602082015181600101908161037a91906119c5565b50604082015181600201556060820151816003015550505050565b6002818051602081018201805184825260208301602085012081835280955050505050506000915090508060000160009054906101000a900473ffffffffffffffffffffffffffffffffffffffff16908060010180546103f490611658565b80601f016020809104026020016040519081016040528092919081815260200182805461042090611658565b801561046d5780601f106104425761010080835404028352916020019161046d565b820191906000526020600020905b81548152906001019060200180831161045057829003601f168201915b50505050509080600201805461048290611658565b80601f01602080910402602001604051908101604052809291908181526020018280546104ae90611658565b80156104fb5780601f106104d0576101008083540402835291602001916104fb565b820191906000526020600020905b8154815290600101906020018083116104de57829003601f168201915b50505050509080600301805461051090611658565b80601f016020809104026020016040519081016040528092919081815260200182805461053c90611658565b80156105895780601f1061055e57610100808354040283529160200191610589565b820191906000526020600020905b81548152906001019060200180831161056c57829003601f168201915b50505050509080600401805461059e90611658565b80601f01602080910402602001604051908101604052809291908181526020018280546105ca90611658565b80156106175780601f106105ec57610100808354040283529160200191610617565b820191906000526020600020905b8154815290600101906020018083116105fa57829003601f168201915b5050505050905085565b610629610ea6565b6002600160008473ffffffffffffffffffffffffffffffffffffffff1673ffffffffffffffffffffffffffffffffffffffff1681526020019081526020016000206040516106779190611b25565b90815260200160405180910390206040518060a00160405290816000820160009054906101000a900473ffffffffffffffffffffffffffffffffffffffff1673ffffffffffffffffffffffffffffffffffffffff1673ffffffffffffffffffffffffffffffffffffffff1681526020016001820180546106f690611658565b80601f016020809104026020016040519081016040528092919081815260200182805461072290611658565b801561076f5780601f106107445761010080835404028352916020019161076f565b820191906000526020600020905b81548152906001019060200180831161075257829003601f168201915b5050505050815260200160028201805461078890611658565b80601f01602080910402602001604051908101604052809291908181526020018280546107b490611658565b80156108015780601f106107d657610100808354040283529160200191610801565b820191906000526020600020905b8154815290600101906020018083116107e457829003601f168201915b5050505050815260200160038201805461081a90611658565b80601f016020809104026020016040519081016040528092919081815260200182805461084690611658565b80156108935780601f1061086857610100808354040283529160200191610893565b820191906000526020600020905b81548152906001019060200180831161087657829003601f168201915b505050505081526020016004820180546108ac90611658565b80601f01602080910402602001604051908101604052809291908181526020018280546108d890611658565b80156109255780601f106108fa57610100808354040283529160200191610925565b820191906000526020600020905b81548152906001019060200180831161090857829003601f168201915b5050505050815250509050919050565b6000818154811061094557600080fd5b90600052602060002090600402016000915090508060000160009054906101000a900473ffffffffffffffffffffffffffffffffffffffff169080600101805461098e90611658565b80601f01602080910402602001604051908101604052809291908181526020018280546109ba90611658565b8015610a075780601f106109dc57610100808354040283529160200191610a07565b820191906000526020600020905b8154815290600101906020018083116109ea57829003601f168201915b5050505050908060020154908060030154905084565b60016020528060005260406000206000915090508054610a3c90611658565b80601f0160208091040260200160405190810160405280929190818152602001828054610a6890611658565b8015610ab55780601f10610a8a57610100808354040283529160200191610ab5565b820191906000526020600020905b815481529060010190602001808311610a9857829003601f168201915b505050505081565b60606000805480602002602001604051908101604052809291908181526020016000905b82821015610c0f57838290600052602060002090600402016040518060800160405290816000820160009054906101000a900473ffffffffffffffffffffffffffffffffffffffff1673ffffffffffffffffffffffffffffffffffffffff1673ffffffffffffffffffffffffffffffffffffffff168152602001600182018054610b6a90611658565b80601f0160208091040260200160405190810160405280929190818152602001828054610b9690611658565b8015610be35780601f10610bb857610100808354040283529160200191610be3565b820191906000526020600020905b815481529060010190602001808311610bc657829003601f168201915b505050505081526020016002820154815260200160038201548152505081526020019060010190610ae1565b50505050905090565b6000600160003373ffffffffffffffffffffffffffffffffffffffff1673ffffffffffffffffffffffffffffffffffffffff1681526020019081526020016000208054610c6490611658565b905014610ca6576040517f08c379a0000000000000000000000000000000000000000000000000000000008152600401610c9d90611b88565b60405180910390fd5b600073ffffffffffffffffffffffffffffffffffffffff16600285604051610cce9190611bd9565b908152602001604051809103902060000160009054906101000a900473ffffffffffffffffffffffffffffffffffffffff1673ffffffffffffffffffffffffffffffffffffffff1614610d56576040517f08c379a0000000000000000000000000000000000000000000000000000000008152600401610d4d90611c62565b60405180910390fd5b6040518060a001604052803373ffffffffffffffffffffffffffffffffffffffff16815260200185815260200184815260200183815260200182815250600285604051610da39190611bd9565b908152602001604051809103902060008201518160000160006101000a81548173ffffffffffffffffffffffffffffffffffffffff021916908373ffffffffffffffffffffffffffffffffffffffff1602179055506020820151816001019081610e0d91906119c5565b506040820151816002019081610e2391906119c5565b506060820151816003019081610e3991906119c5565b506080820151816004019081610e4f91906119c5565b5090505083600160003373ffffffffffffffffffffffffffffffffffffffff1673ffffffffffffffffffffffffffffffffffffffff1681526020019081526020016000209081610e9f91906119c5565b5050505050565b6040518060a00160405280600073ffffffffffffffffffffffffffffffffffffffff168152602001606081526020016060815260200160608152602001606081525090565b6000604051905090565b600080fd5b600080fd5b600080fd5b600080fd5b6000601f19601f8301169050919050565b7f4e487b7100000000000000000000000000000000000000000000000000000000600052604160045260246000fd5b610f5282610f09565b810181811067ffffffffffffffff82111715610f7157610f70610f1a565b5b80604052505050565b6000610f84610eeb565b9050610f908282610f49565b919050565b600067ffffffffffffffff821115610fb057610faf610f1a565b5b610fb982610f09565b9050602081019050919050565b82818337600083830152505050565b6000610fe8610fe384610f95565b610f7a565b90508281526020810184848401111561100457611003610f04565b5b61100f848285610fc6565b509392505050565b600082601f83011261102c5761102b610eff565b5b813561103c848260208601610fd5565b91505092915050565b60006020828403121561105b5761105a610ef5565b5b600082013567ffffffffffffffff81111561107957611078610efa565b5b61108584828501611017565b91505092915050565b600073ffffffffffffffffffffffffffffffffffffffff82169050919050565b60006110b98261108e565b9050919050565b6110c9816110ae565b82525050565b600081519050919050565b600082825260208201905092915050565b60005b838110156111095780820151818401526020810190506110ee565b60008484015250505050565b6000611120826110cf565b61112a81856110da565b935061113a8185602086016110eb565b61114381610f09565b840191505092915050565b600060a08201905061116360008301886110c0565b81810360208301526111758187611115565b905081810360408301526111898186611115565b9050818103606083015261119d8185611115565b905081810360808301526111b18184611115565b90509695505050505050565b6111c6816110ae565b81146111d157600080fd5b50565b6000813590506111e3816111bd565b92915050565b6000602082840312156111ff576111fe610ef5565b5b600061120d848285016111d4565b91505092915050565b61121f816110ae565b82525050565b600082825260208201905092915050565b6000611241826110cf565b61124b8185611225565b935061125b8185602086016110eb565b61126481610f09565b840191505092915050565b600060a0830160008301516112876000860182611216565b506020830151848203602086015261129f8282611236565b915050604083015184820360408601526112b98282611236565b915050606083015184820360608601526112d38282611236565b915050608083015184820360808601526112ed8282611236565b9150508091505092915050565b60006020820190508181036000830152611314818461126f565b905092915050565b6000819050919050565b61132f8161131c565b811461133a57600080fd5b50565b60008135905061134c81611326565b92915050565b60006020828403121561136857611367610ef5565b5b60006113768482850161133d565b91505092915050565b6113888161131c565b82525050565b60006080820190506113a360008301876110c0565b81810360208301526113b58186611115565b90506113c4604083018561137f565b6113d1606083018461137f565b95945050505050565b600060208201905081810360008301526113f48184611115565b905092915050565b600081519050919050565b600082825260208201905092915050565b6000819050602082019050919050565b6114318161131c565b82525050565b600060808301600083015161144f6000860182611216565b50602083015184820360208601526114678282611236565b915050604083015161147c6040860182611428565b50606083015161148f6060860182611428565b508091505092915050565b60006114a68383611437565b905092915050565b6000602082019050919050565b60006114c6826113fc565b6114d08185611407565b9350836020820285016114e285611418565b8060005b8581101561151e57848403895281516114ff858261149a565b945061150a836114ae565b925060208a019950506001810190506114e6565b50829750879550505050505092915050565b6000602082019050818103600083015261154a81846114bb565b905092915050565b6000806000806080858703121561156c5761156b610ef5565b5b600085013567ffffffffffffffff81111561158a57611589610efa565b5b61159687828801611017565b945050602085013567ffffffffffffffff8111156115b7576115b6610efa565b5b6115c387828801611017565b935050604085013567ffffffffffffffff8111156115e4576115e3610efa565b5b6115f087828801611017565b925050606085013567ffffffffffffffff81111561161157611610610efa565b5b61161d87828801611017565b91505092959194509250565b7f4e487b7100000000000000000000000000000000000000000000000000000000600052602260045260246000fd5b6000600282049050600182168061167057607f821691505b60208210810361168357611682611629565b5b50919050565b7f596f75206d757374207369676e20757020746f20706f7374206120747765657460008201527f2e00000000000000000000000000000000000000000000000000000000000000602082015250565b60006116e56021836110da565b91506116f082611689565b604082019050919050565b60006020820190508181036000830152611714816116d8565b9050919050565b7f596f75206d75737420777269746520736f6d657468696e6720746f20706f737460008201527f20612074776565742e0000000000000000000000000000000000000000000000602082015250565b60006117776029836110da565b91506117828261171b565b604082019050919050565b600060208201905081810360008301526117a68161176a565b9050919050565b7f596f757220747765657420697320746f6f206c6f6e672e000000000000000000600082015250565b60006117e36017836110da565b91506117ee826117ad565b602082019050919050565b60006020820190508181036000830152611812816117d6565b9050919050565b60008190508160005260206000209050919050565b60006020601f8301049050919050565b600082821b905092915050565b60006008830261187b7fffffffffffffffffffffffffffffffffffffffffffffffffffffffffffffffff8261183e565b611885868361183e565b95508019841693508086168417925050509392505050565b6000819050919050565b60006118c26118bd6118b88461131c565b61189d565b61131c565b9050919050565b6000819050919050565b6118dc836118a7565b6118f06118e8826118c9565b84845461184b565b825550505050565b600090565b6119056118f8565b6119108184846118d3565b505050565b5b81811015611934576119296000826118fd565b600181019050611916565b5050565b601f8211156119795761194a81611819565b6119538461182e565b81016020851015611962578190505b61197661196e8561182e565b830182611915565b50505b505050565b600082821c905092915050565b600061199c6000198460080261197e565b1980831691505092915050565b60006119b5838361198b565b9150826002028217905092915050565b6119ce826110cf565b67ffffffffffffffff8111156119e7576119e6610f1a565b5b6119f18254611658565b6119fc828285611938565b600060209050601f831160018114611a2f5760008415611a1d578287015190505b611a2785826119a9565b865550611a8f565b601f198416611a3d86611819565b60005b82811015611a6557848901518255600182019150602085019450602081019050611a40565b86831015611a825784890151611a7e601f89168261198b565b8355505b6001600288020188555050505b505050505050565b600081905092915050565b60008154611aaf81611658565b611ab98186611a97565b94506001821660008114611ad45760018114611ae957611b1c565b60ff1983168652811515820286019350611b1c565b611af285611819565b60005b83811015611b1457815481890152600182019150602081019050611af5565b838801955050505b50505092915050565b6000611b318284611aa2565b915081905092915050565b7f557365726e616d6520616c726561647920657869737473000000000000000000600082015250565b6000611b726017836110da565b9150611b7d82611b3c565b602082019050919050565b60006020820190508181036000830152611ba181611b65565b9050919050565b6000611bb3826110cf565b611bbd8185611a97565b9350611bcd8185602086016110eb565b80840191505092915050565b6000611be58284611ba8565b915081905092915050565b7f557365726e616d652069732074616b656e2c20706c656173652074727920616e60008201527f6f74686572206f6e650000000000000000000000000000000000000000000000602082015250565b6000611c4c6029836110da565b9150611c5782611bf0565b604082019050919050565b60006020820190508181036000830152611c7b81611c3f565b905091905056fea264697066735822122056b926181bfbc43c8eaa37e1228d5aafb42cd27c89f0f016612757b9d8bd1c6664736f6c63430008110033",
  "linkReferences": {},
  "deployedLinkReferences": {}
}