{
  "_format": "hh-sol-artifact-1",
  "contractName": "Dwitter",
  "sourceName": "contracts/Dwitter.sol",
  "abi": [
    {
      "inputs": [
        {
          "internalType": "address",
          "name": "_wallet",
          "type": "address"
        }
      ],
      "name": "getUser",
      "outputs": [
        {
          "components": [
            {
              "internalType": "address",
              "name": "wallet",
              "type": "address"
            },
            {
              "internalType": "string",
              "name": "username",
              "type": "string"
            },
            {
              "internalType": "string",
              "name": "name",
              "type": "string"
            },
            {
              "internalType": "string",
              "name": "bio",
              "type": "string"
            },
            {
              "internalType": "string",
              "name": "avatar",
              "type": "string"
            }
          ],
          "internalType": "struct Dwitter.User",
          "name": "",
          "type": "tuple"
        }
      ],
      "stateMutability": "view",
      "type": "function"
    },
    {
      "inputs": [
        {
          "internalType": "string",
          "name": "_username",
          "type": "string"
        },
        {
          "internalType": "string",
          "name": "_name",
          "type": "string"
        },
        {
          "internalType": "string",
          "name": "_bio",
          "type": "string"
        },
        {
          "internalType": "string",
          "name": "_avatar",
          "type": "string"
        }
      ],
      "name": "signup",
      "outputs": [],
      "stateMutability": "nonpayable",
      "type": "function"
    },
    {
      "inputs": [
        {
          "internalType": "address",
          "name": "",
          "type": "address"
        }
      ],
      "name": "usernames",
      "outputs": [
        {
          "internalType": "string",
          "name": "",
          "type": "string"
        }
      ],
      "stateMutability": "view",
      "type": "function"
    },
    {
      "inputs": [
        {
          "internalType": "string",
          "name": "",
          "type": "string"
        }
      ],
      "name": "users",
      "outputs": [
        {
          "internalType": "address",
          "name": "wallet",
          "type": "address"
        },
        {
          "internalType": "string",
          "name": "username",
          "type": "string"
        },
        {
          "internalType": "string",
          "name": "name",
          "type": "string"
        },
        {
          "internalType": "string",
          "name": "bio",
          "type": "string"
        },
        {
          "internalType": "string",
          "name": "avatar",
          "type": "string"
        }
      ],
      "stateMutability": "view",
      "type": "function"
    }
  ],
  "bytecode": "0x608060405234801561001057600080fd5b50611444806100206000396000f3fe608060405234801561001057600080fd5b506004361061004c5760003560e01c8063689e1c03146100515780636f77926b14610085578063ee91877c146100b5578063fcf58fa5146100e5575b600080fd5b61006b60048036038101906100669190610b6b565b610101565b60405161007c959493929190610c74565b60405180910390f35b61009f600480360381019061009a9190610d0f565b61038d565b6040516100ac9190610e20565b60405180910390f35b6100cf60048036038101906100ca9190610d0f565b6106a0565b6040516100dc9190610e42565b60405180910390f35b6100ff60048036038101906100fa9190610e64565b610740565b005b6001818051602081018201805184825260208301602085012081835280955050505050506000915090508060000160009054906101000a900473ffffffffffffffffffffffffffffffffffffffff169080600101805461016090610f6a565b80601f016020809104026020016040519081016040528092919081815260200182805461018c90610f6a565b80156101d95780601f106101ae576101008083540402835291602001916101d9565b820191906000526020600020905b8154815290600101906020018083116101bc57829003601f168201915b5050505050908060020180546101ee90610f6a565b80601f016020809104026020016040519081016040528092919081815260200182805461021a90610f6a565b80156102675780601f1061023c57610100808354040283529160200191610267565b820191906000526020600020905b81548152906001019060200180831161024a57829003601f168201915b50505050509080600301805461027c90610f6a565b80601f01602080910402602001604051908101604052809291908181526020018280546102a890610f6a565b80156102f55780601f106102ca576101008083540402835291602001916102f5565b820191906000526020600020905b8154815290600101906020018083116102d857829003601f168201915b50505050509080600401805461030a90610f6a565b80601f016020809104026020016040519081016040528092919081815260200182805461033690610f6a565b80156103835780601f1061035857610100808354040283529160200191610383565b820191906000526020600020905b81548152906001019060200180831161036657829003601f168201915b5050505050905085565b6103956109cc565b60016000808473ffffffffffffffffffffffffffffffffffffffff1673ffffffffffffffffffffffffffffffffffffffff1681526020019081526020016000206040516103e2919061103e565b90815260200160405180910390206040518060a00160405290816000820160009054906101000a900473ffffffffffffffffffffffffffffffffffffffff1673ffffffffffffffffffffffffffffffffffffffff1673ffffffffffffffffffffffffffffffffffffffff16815260200160018201805461046190610f6a565b80601f016020809104026020016040519081016040528092919081815260200182805461048d90610f6a565b80156104da5780601f106104af576101008083540402835291602001916104da565b820191906000526020600020905b8154815290600101906020018083116104bd57829003601f168201915b505050505081526020016002820180546104f390610f6a565b80601f016020809104026020016040519081016040528092919081815260200182805461051f90610f6a565b801561056c5780601f106105415761010080835404028352916020019161056c565b820191906000526020600020905b81548152906001019060200180831161054f57829003601f168201915b5050505050815260200160038201805461058590610f6a565b80601f01602080910402602001604051908101604052809291908181526020018280546105b190610f6a565b80156105fe5780601f106105d3576101008083540402835291602001916105fe565b820191906000526020600020905b8154815290600101906020018083116105e157829003601f168201915b5050505050815260200160048201805461061790610f6a565b80601f016020809104026020016040519081016040528092919081815260200182805461064390610f6a565b80156106905780601f1061066557610100808354040283529160200191610690565b820191906000526020600020905b81548152906001019060200180831161067357829003601f168201915b5050505050815250509050919050565b600060205280600052604060002060009150905080546106bf90610f6a565b80601f01602080910402602001604051908101604052809291908181526020018280546106eb90610f6a565b80156107385780601f1061070d57610100808354040283529160200191610738565b820191906000526020600020905b81548152906001019060200180831161071b57829003601f168201915b505050505081565b60008060003373ffffffffffffffffffffffffffffffffffffffff1673ffffffffffffffffffffffffffffffffffffffff168152602001908152602001600020805461078b90610f6a565b9050146107cd576040517f08c379a00000000000000000000000000000000000000000000000000000000081526004016107c4906110a1565b60405180910390fd5b600073ffffffffffffffffffffffffffffffffffffffff166001856040516107f591906110f2565b908152602001604051809103902060000160009054906101000a900473ffffffffffffffffffffffffffffffffffffffff1673ffffffffffffffffffffffffffffffffffffffff161461087d576040517f08c379a00000000000000000000000000000000000000000000000000000000081526004016108749061117b565b60405180910390fd5b6040518060a001604052803373ffffffffffffffffffffffffffffffffffffffff168152602001858152602001848152602001838152602001828152506001856040516108ca91906110f2565b908152602001604051809103902060008201518160000160006101000a81548173ffffffffffffffffffffffffffffffffffffffff021916908373ffffffffffffffffffffffffffffffffffffffff1602179055506020820151816001019081610934919061133c565b50604082015181600201908161094a919061133c565b506060820151816003019081610960919061133c565b506080820151816004019081610976919061133c565b50905050836000803373ffffffffffffffffffffffffffffffffffffffff1673ffffffffffffffffffffffffffffffffffffffff16815260200190815260200160002090816109c5919061133c565b5050505050565b6040518060a00160405280600073ffffffffffffffffffffffffffffffffffffffff168152602001606081526020016060815260200160608152602001606081525090565b6000604051905090565b600080fd5b600080fd5b600080fd5b600080fd5b6000601f19601f8301169050919050565b7f4e487b7100000000000000000000000000000000000000000000000000000000600052604160045260246000fd5b610a7882610a2f565b810181811067ffffffffffffffff82111715610a9757610a96610a40565b5b80604052505050565b6000610aaa610a11565b9050610ab68282610a6f565b919050565b600067ffffffffffffffff821115610ad657610ad5610a40565b5b610adf82610a2f565b9050602081019050919050565b82818337600083830152505050565b6000610b0e610b0984610abb565b610aa0565b905082815260208101848484011115610b2a57610b29610a2a565b5b610b35848285610aec565b509392505050565b600082601f830112610b5257610b51610a25565b5b8135610b62848260208601610afb565b91505092915050565b600060208284031215610b8157610b80610a1b565b5b600082013567ffffffffffffffff811115610b9f57610b9e610a20565b5b610bab84828501610b3d565b91505092915050565b600073ffffffffffffffffffffffffffffffffffffffff82169050919050565b6000610bdf82610bb4565b9050919050565b610bef81610bd4565b82525050565b600081519050919050565b600082825260208201905092915050565b60005b83811015610c2f578082015181840152602081019050610c14565b60008484015250505050565b6000610c4682610bf5565b610c508185610c00565b9350610c60818560208601610c11565b610c6981610a2f565b840191505092915050565b600060a082019050610c896000830188610be6565b8181036020830152610c9b8187610c3b565b90508181036040830152610caf8186610c3b565b90508181036060830152610cc38185610c3b565b90508181036080830152610cd78184610c3b565b90509695505050505050565b610cec81610bd4565b8114610cf757600080fd5b50565b600081359050610d0981610ce3565b92915050565b600060208284031215610d2557610d24610a1b565b5b6000610d3384828501610cfa565b91505092915050565b610d4581610bd4565b82525050565b600082825260208201905092915050565b6000610d6782610bf5565b610d718185610d4b565b9350610d81818560208601610c11565b610d8a81610a2f565b840191505092915050565b600060a083016000830151610dad6000860182610d3c565b5060208301518482036020860152610dc58282610d5c565b91505060408301518482036040860152610ddf8282610d5c565b91505060608301518482036060860152610df98282610d5c565b91505060808301518482036080860152610e138282610d5c565b9150508091505092915050565b60006020820190508181036000830152610e3a8184610d95565b905092915050565b60006020820190508181036000830152610e5c8184610c3b565b905092915050565b60008060008060808587031215610e7e57610e7d610a1b565b5b600085013567ffffffffffffffff811115610e9c57610e9b610a20565b5b610ea887828801610b3d565b945050602085013567ffffffffffffffff811115610ec957610ec8610a20565b5b610ed587828801610b3d565b935050604085013567ffffffffffffffff811115610ef657610ef5610a20565b5b610f0287828801610b3d565b925050606085013567ffffffffffffffff811115610f2357610f22610a20565b5b610f2f87828801610b3d565b91505092959194509250565b7f4e487b7100000000000000000000000000000000000000000000000000000000600052602260045260246000fd5b60006002820490506001821680610f8257607f821691505b602082108103610f9557610f94610f3b565b5b50919050565b600081905092915050565b60008190508160005260206000209050919050565b60008154610fc881610f6a565b610fd28186610f9b565b94506001821660008114610fed576001811461100257611035565b60ff1983168652811515820286019350611035565b61100b85610fa6565b60005b8381101561102d5781548189015260018201915060208101905061100e565b838801955050505b50505092915050565b600061104a8284610fbb565b915081905092915050565b7f557365726e616d6520616c726561647920657869737473000000000000000000600082015250565b600061108b601783610c00565b915061109682611055565b602082019050919050565b600060208201905081810360008301526110ba8161107e565b9050919050565b60006110cc82610bf5565b6110d68185610f9b565b93506110e6818560208601610c11565b80840191505092915050565b60006110fe82846110c1565b915081905092915050565b7f557365726e616d652069732074616b656e2c20706c656173652074727920616e60008201527f6f74686572206f6e650000000000000000000000000000000000000000000000602082015250565b6000611165602983610c00565b915061117082611109565b604082019050919050565b6000602082019050818103600083015261119481611158565b9050919050565b60006020601f8301049050919050565b600082821b905092915050565b6000600883026111e87fffffffffffffffffffffffffffffffffffffffffffffffffffffffffffffffff826111ab565b6111f286836111ab565b95508019841693508086168417925050509392505050565b6000819050919050565b6000819050919050565b600061123961123461122f8461120a565b611214565b61120a565b9050919050565b6000819050919050565b6112538361121e565b61126761125f82611240565b8484546111b8565b825550505050565b600090565b61127c61126f565b61128781848461124a565b505050565b5b818110156112ab576112a0600082611274565b60018101905061128d565b5050565b601f8211156112f0576112c181610fa6565b6112ca8461119b565b810160208510156112d9578190505b6112ed6112e58561119b565b83018261128c565b50505b505050565b600082821c905092915050565b6000611313600019846008026112f5565b1980831691505092915050565b600061132c8383611302565b9150826002028217905092915050565b61134582610bf5565b67ffffffffffffffff81111561135e5761135d610a40565b5b6113688254610f6a565b6113738282856112af565b600060209050601f8311600181146113a65760008415611394578287015190505b61139e8582611320565b865550611406565b601f1984166113b486610fa6565b60005b828110156113dc578489015182556001820191506020850194506020810190506113b7565b868310156113f957848901516113f5601f891682611302565b8355505b6001600288020188555050505b50505050505056fea264697066735822122028cb939aa84d1873d7af3a90101e6382efdc0860801f06bc4b32e09df16424fa64736f6c63430008110033",
  "linkReferences": {},
  "deployedLinkReferences": {}
}